{
  "_format": "hh-sol-artifact-1",
  "contractName": "Verifier",
  "sourceName": "contracts/Verifier.sol",
  "abi": [
    {
      "inputs": [],
      "stateMutability": "nonpayable",
      "type": "constructor"
    },
    {
      "anonymous": false,
      "inputs": [
        {
          "components": [
            {
              "internalType": "bytes16",
              "name": "appId",
              "type": "bytes16"
            },
            {
              "internalType": "bytes16",
              "name": "namespace",
              "type": "bytes16"
            },
            {
              "internalType": "bytes32",
              "name": "version",
              "type": "bytes32"
            },
            {
              "components": [
                {
                  "internalType": "enum AuthType",
                  "name": "authType",
                  "type": "uint8"
                },
                {
                  "internalType": "bool",
                  "name": "isAnon",
                  "type": "bool"
                },
                {
                  "internalType": "uint256",
                  "name": "userId",
                  "type": "uint256"
                },
                {
                  "internalType": "bytes",
                  "name": "extraData",
                  "type": "bytes"
                },
                {
                  "internalType": "bytes",
                  "name": "proofData",
                  "type": "bytes"
                }
              ],
              "internalType": "struct VerifiedAuth[]",
              "name": "auths",
              "type": "tuple[]"
            },
            {
              "components": [
                {
                  "internalType": "enum ClaimType",
                  "name": "claimType",
                  "type": "uint8"
                },
                {
                  "internalType": "bytes16",
                  "name": "groupId",
                  "type": "bytes16"
                },
                {
                  "internalType": "bytes16",
                  "name": "groupTimestamp",
                  "type": "bytes16"
                },
                {
                  "internalType": "uint256",
                  "name": "value",
                  "type": "uint256"
                },
                {
                  "internalType": "bytes",
                  "name": "extraData",
                  "type": "bytes"
                },
                {
                  "internalType": "uint256",
                  "name": "proofId",
                  "type": "uint256"
                },
                {
                  "internalType": "bytes",
                  "name": "proofData",
                  "type": "bytes"
                }
              ],
              "internalType": "struct VerifiedClaim[]",
              "name": "claims",
              "type": "tuple[]"
            },
            {
              "internalType": "bytes",
              "name": "signedMessage",
              "type": "bytes"
            }
          ],
          "indexed": false,
          "internalType": "struct SismoConnectVerifiedResult",
          "name": "result",
          "type": "tuple"
        }
      ],
      "name": "ResponseVerified",
      "type": "event"
    },
    {
      "inputs": [],
      "name": "ADDRESSES_PROVIDER_V2",
      "outputs": [
        {
          "internalType": "contract IAddressesProvider",
          "name": "",
          "type": "address"
        }
      ],
      "stateMutability": "view",
      "type": "function"
    },
    {
      "inputs": [],
      "name": "APP_ID",
      "outputs": [
        {
          "internalType": "bytes16",
          "name": "",
          "type": "bytes16"
        }
      ],
      "stateMutability": "view",
      "type": "function"
    },
    {
      "inputs": [],
      "name": "IS_IMPERSONATION_MODE",
      "outputs": [
        {
          "internalType": "bool",
          "name": "",
          "type": "bool"
        }
      ],
      "stateMutability": "view",
      "type": "function"
    },
    {
      "inputs": [],
      "name": "SISMO_CONNECT_LIB_VERSION",
      "outputs": [
        {
          "internalType": "uint256",
          "name": "",
          "type": "uint256"
        }
      ],
      "stateMutability": "view",
      "type": "function"
    },
    {
      "inputs": [],
      "name": "config",
      "outputs": [
        {
          "components": [
            {
              "internalType": "bytes16",
              "name": "appId",
              "type": "bytes16"
            },
            {
              "components": [
                {
                  "internalType": "bool",
                  "name": "isImpersonationMode",
                  "type": "bool"
                }
              ],
              "internalType": "struct VaultConfig",
              "name": "vault",
              "type": "tuple"
            }
          ],
          "internalType": "struct SismoConnectConfig",
          "name": "",
          "type": "tuple"
        }
      ],
      "stateMutability": "view",
      "type": "function"
    },
    {
      "inputs": [
        {
          "internalType": "bytes",
          "name": "response",
          "type": "bytes"
        }
      ],
      "name": "verifySismoConnectResponse",
      "outputs": [],
      "stateMutability": "nonpayable",
      "type": "function"
    }
  ],
  "bytecode": "0x6101606040523480156200001257600080fd5b50620000396fedae8cc49b4f32e436691771aadd539360801b60006200057060201b60201c565b80600001516fffffffffffffffffffffffffffffffff1916610120816fffffffffffffffffffffffffffffffff191681525050806020015160000151151561014081151581525050733cd5334eb64ebbd4003b72022cc25465f1bfcee673ffffffffffffffffffffffffffffffffffffffff1663693ec85e6040518060400160405280601981526020017f7369736d6f436f6e6e65637456657269666965722d76312e32000000000000008152506040518263ffffffff1660e01b8152600401620001059190620006c0565b602060405180830381865afa15801562000123573d6000803e3d6000fd5b505050506040513d601f19601f820116820180604052508101906200014991906200074e565b73ffffffffffffffffffffffffffffffffffffffff1660808173ffffffffffffffffffffffffffffffffffffffff1681525050733cd5334eb64ebbd4003b72022cc25465f1bfcee673ffffffffffffffffffffffffffffffffffffffff1663693ec85e6040518060400160405280601781526020017f61757468526571756573744275696c6465722d76312e310000000000000000008152506040518263ffffffff1660e01b8152600401620002009190620006c0565b602060405180830381865afa1580156200021e573d6000803e3d6000fd5b505050506040513d601f19601f820116820180604052508101906200024491906200074e565b73ffffffffffffffffffffffffffffffffffffffff1660a08173ffffffffffffffffffffffffffffffffffffffff1681525050733cd5334eb64ebbd4003b72022cc25465f1bfcee673ffffffffffffffffffffffffffffffffffffffff1663693ec85e6040518060400160405280601881526020017f636c61696d526571756573744275696c6465722d76312e3100000000000000008152506040518263ffffffff1660e01b8152600401620002fb9190620006c0565b602060405180830381865afa15801562000319573d6000803e3d6000fd5b505050506040513d601f19601f820116820180604052508101906200033f91906200074e565b73ffffffffffffffffffffffffffffffffffffffff1660c08173ffffffffffffffffffffffffffffffffffffffff1681525050733cd5334eb64ebbd4003b72022cc25465f1bfcee673ffffffffffffffffffffffffffffffffffffffff1663693ec85e6040518060400160405280601581526020017f7369676e61747572654275696c6465722d76312e3100000000000000000000008152506040518263ffffffff1660e01b8152600401620003f69190620006c0565b602060405180830381865afa15801562000414573d6000803e3d6000fd5b505050506040513d601f19601f820116820180604052508101906200043a91906200074e565b73ffffffffffffffffffffffffffffffffffffffff1660e08173ffffffffffffffffffffffffffffffffffffffff1681525050733cd5334eb64ebbd4003b72022cc25465f1bfcee673ffffffffffffffffffffffffffffffffffffffff1663693ec85e6040518060400160405280601381526020017f726571756573744275696c6465722d76312e31000000000000000000000000008152506040518263ffffffff1660e01b8152600401620004f19190620006c0565b602060405180830381865afa1580156200050f573d6000803e3d6000fd5b505050506040513d601f19601f820116820180604052508101906200053591906200074e565b73ffffffffffffffffffffffffffffffffffffffff166101008173ffffffffffffffffffffffffffffffffffffffff16815250505062000780565b6200057a620005dc565b6040518060400160405280846fffffffffffffffffffffffffffffffff19168152602001620005af84620005ba60201b60201c565b815250905092915050565b620005c462000611565b60405180602001604052808315158152509050919050565b604051806040016040528060006fffffffffffffffffffffffffffffffff191681526020016200060b62000611565b81525090565b60405180602001604052806000151581525090565b600081519050919050565b600082825260208201905092915050565b60005b838110156200066257808201518184015260208101905062000645565b60008484015250505050565b6000601f19601f8301169050919050565b60006200068c8262000626565b62000698818562000631565b9350620006aa81856020860162000642565b620006b5816200066e565b840191505092915050565b60006020820190508181036000830152620006dc81846200067f565b905092915050565b600080fd5b600073ffffffffffffffffffffffffffffffffffffffff82169050919050565b60006200071682620006e9565b9050919050565b620007288162000709565b81146200073457600080fd5b50565b60008151905062000748816200071d565b92915050565b600060208284031215620007675762000766620006e4565b5b6000620007778482850162000737565b91505092915050565b60805160a05160c05160e051610100516101205161014051612eb2620007e96000396000818161015f015261018a01526000818161013e01526101ae015260006106b60152600061050301526000610455015260006103a7015260006105d80152612eb26000f3fe608060405234801561001057600080fd5b50600436106100625760003560e01c8063469163011461006757806379502c5514610085578063a183dc27146100a3578063c187bbc1146100c1578063c9512d99146100df578063d44434c9146100fd575b600080fd5b61006f610119565b60405161007c91906109b1565b60405180910390f35b61008d610131565b60405161009a9190610a6d565b60405180910390f35b6100ab610188565b6040516100b89190610a97565b60405180910390f35b6100c96101ac565b6040516100d69190610ac1565b60405180910390f35b6100e76101d0565b6040516100f49190610af5565b60405180910390f35b61011760048036038101906101129190610c6a565b6101d5565b005b733cd5334eb64ebbd4003b72022cc25465f1bfcee681565b610139610760565b6101837f00000000000000000000000000000000000000000000000000000000000000007f000000000000000000000000000000000000000000000000000000000000000061035d565b905090565b7f000000000000000000000000000000000000000000000000000000000000000081565b7f000000000000000000000000000000000000000000000000000000000000000081565b600281565b6000600167ffffffffffffffff8111156101f2576101f1610b3f565b5b60405190808252806020026020018201604052801561022b57816020015b610218610793565b8152602001906001900390816102105790505b509050610238600061039d565b8160008151811061024c5761024b610cb3565b5b60200260200101819052506000600167ffffffffffffffff81111561027457610273610b3f565b5b6040519080825280602002602001820160405280156102ad57816020015b61029a6107e1565b8152602001906001900390816102925790505b5090506102cc6f9b72562239c38dbc6fe8a0ff443019bf60801b61044b565b816000815181106102e0576102df610cb3565b5b6020026020010181905250600061031e84848461031960405160200161030590610d3f565b6040516020818303038152906040526104f9565b6105a7565b90507f9289e35b3d969e3d006d5d4306119c6719c081660cf5b89a43654f2420a066688160405161034f9190611200565b60405180910390a150505050565b610365610760565b6040518060400160405280846fffffffffffffffffffffffffffffffff191681526020016103928461068c565b815250905092915050565b6103a5610793565b7f000000000000000000000000000000000000000000000000000000000000000073ffffffffffffffffffffffffffffffffffffffff16633a0ba6ff836040518263ffffffff1660e01b81526004016103fe9190611231565b600060405180830381865afa15801561041b573d6000803e3d6000fd5b505050506040513d6000823e3d601f19601f8201168201806040525081019061044491906113ff565b9050919050565b6104536107e1565b7f000000000000000000000000000000000000000000000000000000000000000073ffffffffffffffffffffffffffffffffffffffff1663e379821c836040518263ffffffff1660e01b81526004016104ac9190610ac1565b600060405180830381865afa1580156104c9573d6000803e3d6000fd5b505050506040513d6000823e3d601f19601f820116820180604052508101906104f29190611569565b9050919050565b61050161085a565b7f000000000000000000000000000000000000000000000000000000000000000073ffffffffffffffffffffffffffffffffffffffff16636835f32c836040518263ffffffff1660e01b815260040161055a91906115fc565b600060405180830381865afa158015610577573d6000803e3d6000fd5b505050506040513d6000823e3d601f19601f820116820180604052508101906105a091906116ba565b9050919050565b6105af61087d565b6000858060200190518101906105c59190611cfb565b905060006105d48686866106ac565b90507f000000000000000000000000000000000000000000000000000000000000000073ffffffffffffffffffffffffffffffffffffffff166312b037ff838361061c610131565b6040518463ffffffff1660e01b815260040161063a93929190612502565b600060405180830381865afa158015610657573d6000803e3d6000fd5b505050506040513d6000823e3d601f19601f8201168201806040525081019061068091906129ad565b92505050949350505050565b6106946108dc565b60405180602001604052808315158152509050919050565b6106b46108f1565b7f000000000000000000000000000000000000000000000000000000000000000073ffffffffffffffffffffffffffffffffffffffff1663992403368585856040518463ffffffff1660e01b815260040161071193929190612b59565b600060405180830381865afa15801561072e573d6000803e3d6000fd5b505050506040513d6000823e3d601f19601f820116820180604052508101906107579190612e33565b90509392505050565b604051806040016040528060006fffffffffffffffffffffffffffffffff1916815260200161078d6108dc565b81525090565b6040518060c00160405280600060058111156107b2576107b1610da4565b5b815260200160008152602001600015158152602001600015158152602001600015158152602001606081525090565b6040518060e0016040528060006004811115610800576107ff610da4565b5b815260200160006fffffffffffffffffffffffffffffffff1916815260200160006fffffffffffffffffffffffffffffffff1916815260200160008152602001600015158152602001600015158152602001606081525090565b604051806060016040528060608152602001600015158152602001606081525090565b6040518060c0016040528060006fffffffffffffffffffffffffffffffff1916815260200160006fffffffffffffffffffffffffffffffff19168152602001600080191681526020016060815260200160608152602001606081525090565b60405180602001604052806000151581525090565b604051806080016040528060006fffffffffffffffffffffffffffffffff19168152602001606081526020016060815260200161092c61085a565b81525090565b600073ffffffffffffffffffffffffffffffffffffffff82169050919050565b6000819050919050565b600061097761097261096d84610932565b610952565b610932565b9050919050565b60006109898261095c565b9050919050565b600061099b8261097e565b9050919050565b6109ab81610990565b82525050565b60006020820190506109c660008301846109a2565b92915050565b60007fffffffffffffffffffffffffffffffff0000000000000000000000000000000082169050919050565b610a01816109cc565b82525050565b60008115159050919050565b610a1c81610a07565b82525050565b602082016000820151610a386000850182610a13565b50505050565b604082016000820151610a5460008501826109f8565b506020820151610a676020850182610a22565b50505050565b6000604082019050610a826000830184610a3e565b92915050565b610a9181610a07565b82525050565b6000602082019050610aac6000830184610a88565b92915050565b610abb816109cc565b82525050565b6000602082019050610ad66000830184610ab2565b92915050565b6000819050919050565b610aef81610adc565b82525050565b6000602082019050610b0a6000830184610ae6565b92915050565b6000604051905090565b600080fd5b600080fd5b600080fd5b600080fd5b6000601f19601f8301169050919050565b7f4e487b7100000000000000000000000000000000000000000000000000000000600052604160045260246000fd5b610b7782610b2e565b810181811067ffffffffffffffff82111715610b9657610b95610b3f565b5b80604052505050565b6000610ba9610b10565b9050610bb58282610b6e565b919050565b600067ffffffffffffffff821115610bd557610bd4610b3f565b5b610bde82610b2e565b9050602081019050919050565b82818337600083830152505050565b6000610c0d610c0884610bba565b610b9f565b905082815260208101848484011115610c2957610c28610b29565b5b610c34848285610beb565b509392505050565b600082601f830112610c5157610c50610b24565b5b8135610c61848260208601610bfa565b91505092915050565b600060208284031215610c8057610c7f610b1a565b5b600082013567ffffffffffffffff811115610c9e57610c9d610b1f565b5b610caa84828501610c3c565b91505092915050565b7f4e487b7100000000000000000000000000000000000000000000000000000000600052603260045260246000fd5b600082825260208201905092915050565b7f3078303000000000000000000000000000000000000000000000000000000000600082015250565b6000610d29600483610ce2565b9150610d3482610cf3565b602082019050919050565b60006020820190508181036000830152610d5881610d1c565b9050919050565b6000819050919050565b610d7281610d5f565b82525050565b600081519050919050565b600082825260208201905092915050565b6000819050602082019050919050565b7f4e487b7100000000000000000000000000000000000000000000000000000000600052602160045260246000fd5b60068110610de457610de3610da4565b5b50565b6000819050610df582610dd3565b919050565b6000610e0582610de7565b9050919050565b610e1581610dfa565b82525050565b610e2481610adc565b82525050565b600081519050919050565b600082825260208201905092915050565b60005b83811015610e64578082015181840152602081019050610e49565b60008484015250505050565b6000610e7b82610e2a565b610e858185610e35565b9350610e95818560208601610e46565b610e9e81610b2e565b840191505092915050565b600060a083016000830151610ec16000860182610e0c565b506020830151610ed46020860182610a13565b506040830151610ee76040860182610e1b565b5060608301518482036060860152610eff8282610e70565b91505060808301518482036080860152610f198282610e70565b9150508091505092915050565b6000610f328383610ea9565b905092915050565b6000602082019050919050565b6000610f5282610d78565b610f5c8185610d83565b935083602082028501610f6e85610d94565b8060005b85811015610faa5784840389528151610f8b8582610f26565b9450610f9683610f3a565b925060208a01995050600181019050610f72565b50829750879550505050505092915050565b600081519050919050565b600082825260208201905092915050565b6000819050602082019050919050565b60058110610ff957610ff8610da4565b5b50565b600081905061100a82610fe8565b919050565b600061101a82610ffc565b9050919050565b61102a8161100f565b82525050565b600060e0830160008301516110486000860182611021565b50602083015161105b60208601826109f8565b50604083015161106e60408601826109f8565b5060608301516110816060860182610e1b565b50608083015184820360808601526110998282610e70565b91505060a08301516110ae60a0860182610e1b565b5060c083015184820360c08601526110c68282610e70565b9150508091505092915050565b60006110df8383611030565b905092915050565b6000602082019050919050565b60006110ff82610fbc565b6111098185610fc7565b93508360208202850161111b85610fd8565b8060005b85811015611157578484038952815161113885826110d3565b9450611143836110e7565b925060208a0199505060018101905061111f565b50829750879550505050505092915050565b600060c08301600083015161118160008601826109f8565b50602083015161119460208601826109f8565b5060408301516111a76040860182610d69565b50606083015184820360608601526111bf8282610f47565b915050608083015184820360808601526111d982826110f4565b91505060a083015184820360a08601526111f38282610e70565b9150508091505092915050565b6000602082019050818103600083015261121a8184611169565b905092915050565b61122b81610dfa565b82525050565b60006020820190506112466000830184611222565b92915050565b600080fd5b600080fd5b6006811061126357600080fd5b50565b60008151905061127581611256565b92915050565b61128481610adc565b811461128f57600080fd5b50565b6000815190506112a18161127b565b92915050565b6112b081610a07565b81146112bb57600080fd5b50565b6000815190506112cd816112a7565b92915050565b60006112e66112e184610bba565b610b9f565b90508281526020810184848401111561130257611301610b29565b5b61130d848285610e46565b509392505050565b600082601f83011261132a57611329610b24565b5b815161133a8482602086016112d3565b91505092915050565b600060c082840312156113595761135861124c565b5b61136360c0610b9f565b9050600061137384828501611266565b600083015250602061138784828501611292565b602083015250604061139b848285016112be565b60408301525060606113af848285016112be565b60608301525060806113c3848285016112be565b60808301525060a082015167ffffffffffffffff8111156113e7576113e6611251565b5b6113f384828501611315565b60a08301525092915050565b60006020828403121561141557611414610b1a565b5b600082015167ffffffffffffffff81111561143357611432610b1f565b5b61143f84828501611343565b91505092915050565b6005811061145557600080fd5b50565b60008151905061146781611448565b92915050565b611476816109cc565b811461148157600080fd5b50565b6000815190506114938161146d565b92915050565b600060e082840312156114af576114ae61124c565b5b6114b960e0610b9f565b905060006114c984828501611458565b60008301525060206114dd84828501611484565b60208301525060406114f184828501611484565b604083015250606061150584828501611292565b6060830152506080611519848285016112be565b60808301525060a061152d848285016112be565b60a08301525060c082015167ffffffffffffffff81111561155157611550611251565b5b61155d84828501611315565b60c08301525092915050565b60006020828403121561157f5761157e610b1a565b5b600082015167ffffffffffffffff81111561159d5761159c610b1f565b5b6115a984828501611499565b91505092915050565b600082825260208201905092915050565b60006115ce82610e2a565b6115d881856115b2565b93506115e8818560208601610e46565b6115f181610b2e565b840191505092915050565b6000602082019050818103600083015261161681846115c3565b905092915050565b6000606082840312156116345761163361124c565b5b61163e6060610b9f565b9050600082015167ffffffffffffffff81111561165e5761165d611251565b5b61166a84828501611315565b600083015250602061167e848285016112be565b602083015250604082015167ffffffffffffffff8111156116a2576116a1611251565b5b6116ae84828501611315565b60408301525092915050565b6000602082840312156116d0576116cf610b1a565b5b600082015167ffffffffffffffff8111156116ee576116ed610b1f565b5b6116fa8482850161161e565b91505092915050565b61170c81610d5f565b811461171757600080fd5b50565b60008151905061172981611703565b92915050565b600067ffffffffffffffff82111561174a57611749610b3f565b5b602082029050602081019050919050565b600080fd5b600067ffffffffffffffff82111561177b5761177a610b3f565b5b602082029050602081019050919050565b600060a082840312156117a2576117a161124c565b5b6117ac60a0610b9f565b905060006117bc84828501611266565b60008301525060206117d0848285016112be565b60208301525060406117e4848285016112be565b60408301525060606117f884828501611292565b606083015250608082015167ffffffffffffffff81111561181c5761181b611251565b5b61182884828501611315565b60808301525092915050565b600061184761184284611760565b610b9f565b9050808382526020820190506020840283018581111561186a5761186961175b565b5b835b818110156118b157805167ffffffffffffffff81111561188f5761188e610b24565b5b80860161189c898261178c565b8552602085019450505060208101905061186c565b5050509392505050565b600082601f8301126118d0576118cf610b24565b5b81516118e0848260208601611834565b91505092915050565b600067ffffffffffffffff82111561190457611903610b3f565b5b602082029050602081019050919050565b600060c0828403121561192b5761192a61124c565b5b61193560c0610b9f565b9050600061194584828501611458565b600083015250602061195984828501611484565b602083015250604061196d84828501611484565b6040830152506060611981848285016112be565b606083015250608061199584828501611292565b60808301525060a082015167ffffffffffffffff8111156119b9576119b8611251565b5b6119c584828501611315565b60a08301525092915050565b60006119e46119df846118e9565b610b9f565b90508083825260208201905060208402830185811115611a0757611a0661175b565b5b835b81811015611a4e57805167ffffffffffffffff811115611a2c57611a2b610b24565b5b808601611a398982611915565b85526020850194505050602081019050611a09565b5050509392505050565b600082601f830112611a6d57611a6c610b24565b5b8151611a7d8482602086016119d1565b91505092915050565b600060a08284031215611a9c57611a9b61124c565b5b611aa660a0610b9f565b9050600082015167ffffffffffffffff811115611ac657611ac5611251565b5b611ad2848285016118bb565b600083015250602082015167ffffffffffffffff811115611af657611af5611251565b5b611b0284828501611a58565b6020830152506040611b168482850161171a565b604083015250606082015167ffffffffffffffff811115611b3a57611b39611251565b5b611b4684828501611315565b606083015250608082015167ffffffffffffffff811115611b6a57611b69611251565b5b611b7684828501611315565b60808301525092915050565b6000611b95611b908461172f565b610b9f565b90508083825260208201905060208402830185811115611bb857611bb761175b565b5b835b81811015611bff57805167ffffffffffffffff811115611bdd57611bdc610b24565b5b808601611bea8982611a86565b85526020850194505050602081019050611bba565b5050509392505050565b600082601f830112611c1e57611c1d610b24565b5b8151611c2e848260208601611b82565b91505092915050565b600060a08284031215611c4d57611c4c61124c565b5b611c5760a0610b9f565b90506000611c6784828501611484565b6000830152506020611c7b84828501611484565b6020830152506040611c8f8482850161171a565b604083015250606082015167ffffffffffffffff811115611cb357611cb2611251565b5b611cbf84828501611315565b606083015250608082015167ffffffffffffffff811115611ce357611ce2611251565b5b611cef84828501611c09565b60808301525092915050565b600060208284031215611d1157611d10610b1a565b5b600082015167ffffffffffffffff811115611d2f57611d2e610b1f565b5b611d3b84828501611c37565b91505092915050565b600081519050919050565b600082825260208201905092915050565b6000819050602082019050919050565b600081519050919050565b600082825260208201905092915050565b6000819050602082019050919050565b600060a083016000830151611db46000860182610e0c565b506020830151611dc76020860182610a13565b506040830151611dda6040860182610a13565b506060830151611ded6060860182610e1b565b5060808301518482036080860152611e058282610e70565b9150508091505092915050565b6000611e1e8383611d9c565b905092915050565b6000602082019050919050565b6000611e3e82611d70565b611e488185611d7b565b935083602082028501611e5a85611d8c565b8060005b85811015611e965784840389528151611e778582611e12565b9450611e8283611e26565b925060208a01995050600181019050611e5e565b50829750879550505050505092915050565b600081519050919050565b600082825260208201905092915050565b6000819050602082019050919050565b600060c083016000830151611eec6000860182611021565b506020830151611eff60208601826109f8565b506040830151611f1260408601826109f8565b506060830151611f256060860182610a13565b506080830151611f386080860182610e1b565b5060a083015184820360a0860152611f508282610e70565b9150508091505092915050565b6000611f698383611ed4565b905092915050565b6000602082019050919050565b6000611f8982611ea8565b611f938185611eb3565b935083602082028501611fa585611ec4565b8060005b85811015611fe15784840389528151611fc28582611f5d565b9450611fcd83611f71565b925060208a01995050600181019050611fa9565b50829750879550505050505092915050565b600060a08301600083015184820360008601526120108282611e33565b9150506020830151848203602086015261202a8282611f7e565b915050604083015161203f6040860182610d69565b50606083015184820360608601526120578282610e70565b915050608083015184820360808601526120718282610e70565b9150508091505092915050565b600061208a8383611ff3565b905092915050565b6000602082019050919050565b60006120aa82611d44565b6120b48185611d4f565b9350836020820285016120c685611d60565b8060005b8581101561210257848403895281516120e3858261207e565b94506120ee83612092565b925060208a019950506001810190506120ca565b50829750879550505050505092915050565b600060a08301600083015161212c60008601826109f8565b50602083015161213f60208601826109f8565b5060408301516121526040860182610d69565b506060830151848203606086015261216a8282610e70565b91505060808301518482036080860152612184828261209f565b9150508091505092915050565b600081519050919050565b600082825260208201905092915050565b6000819050602082019050919050565b600060c0830160008301516121d56000860182610e0c565b5060208301516121e86020860182610e1b565b5060408301516121fb6040860182610a13565b50606083015161220e6060860182610a13565b5060808301516122216080860182610a13565b5060a083015184820360a08601526122398282610e70565b9150508091505092915050565b600061225283836121bd565b905092915050565b6000602082019050919050565b600061227282612191565b61227c818561219c565b93508360208202850161228e856121ad565b8060005b858110156122ca57848403895281516122ab8582612246565b94506122b68361225a565b925060208a01995050600181019050612292565b50829750879550505050505092915050565b600081519050919050565b600082825260208201905092915050565b6000819050602082019050919050565b600060e0830160008301516123206000860182611021565b50602083015161233360208601826109f8565b50604083015161234660408601826109f8565b5060608301516123596060860182610e1b565b50608083015161236c6080860182610a13565b5060a083015161237f60a0860182610a13565b5060c083015184820360c08601526123978282610e70565b9150508091505092915050565b60006123b08383612308565b905092915050565b6000602082019050919050565b60006123d0826122dc565b6123da81856122e7565b9350836020820285016123ec856122f8565b8060005b85811015612428578484038952815161240985826123a4565b9450612414836123b8565b925060208a019950506001810190506123f0565b50829750879550505050505092915050565b600060608301600083015184820360008601526124578282610e70565b915050602083015161246c6020860182610a13565b50604083015184820360408601526124848282610e70565b9150508091505092915050565b60006080830160008301516124a960008601826109f8565b50602083015184820360208601526124c18282612267565b915050604083015184820360408601526124db82826123c5565b915050606083015184820360608601526124f5828261243a565b9150508091505092915050565b6000608082019050818103600083015261251c8186612114565b905081810360208301526125308185612491565b905061253f6040830184610a3e565b949350505050565b600067ffffffffffffffff82111561256257612561610b3f565b5b602082029050602081019050919050565b600060a082840312156125895761258861124c565b5b61259360a0610b9f565b905060006125a384828501611266565b60008301525060206125b7848285016112be565b60208301525060406125cb84828501611292565b604083015250606082015167ffffffffffffffff8111156125ef576125ee611251565b5b6125fb84828501611315565b606083015250608082015167ffffffffffffffff81111561261f5761261e611251565b5b61262b84828501611315565b60808301525092915050565b600061264a61264584612547565b610b9f565b9050808382526020820190506020840283018581111561266d5761266c61175b565b5b835b818110156126b457805167ffffffffffffffff81111561269257612691610b24565b5b80860161269f8982612573565b8552602085019450505060208101905061266f565b5050509392505050565b600082601f8301126126d3576126d2610b24565b5b81516126e3848260208601612637565b91505092915050565b600067ffffffffffffffff82111561270757612706610b3f565b5b602082029050602081019050919050565b600060e0828403121561272e5761272d61124c565b5b61273860e0610b9f565b9050600061274884828501611458565b600083015250602061275c84828501611484565b602083015250604061277084828501611484565b604083015250606061278484828501611292565b606083015250608082015167ffffffffffffffff8111156127a8576127a7611251565b5b6127b484828501611315565b60808301525060a06127c884828501611292565b60a08301525060c082015167ffffffffffffffff8111156127ec576127eb611251565b5b6127f884828501611315565b60c08301525092915050565b6000612817612812846126ec565b610b9f565b9050808382526020820190506020840283018581111561283a5761283961175b565b5b835b8181101561288157805167ffffffffffffffff81111561285f5761285e610b24565b5b80860161286c8982612718565b8552602085019450505060208101905061283c565b5050509392505050565b600082601f8301126128a05761289f610b24565b5b81516128b0848260208601612804565b91505092915050565b600060c082840312156128cf576128ce61124c565b5b6128d960c0610b9f565b905060006128e984828501611484565b60008301525060206128fd84828501611484565b60208301525060406129118482850161171a565b604083015250606082015167ffffffffffffffff81111561293557612934611251565b5b612941848285016126be565b606083015250608082015167ffffffffffffffff81111561296557612964611251565b5b6129718482850161288b565b60808301525060a082015167ffffffffffffffff81111561299557612994611251565b5b6129a184828501611315565b60a08301525092915050565b6000602082840312156129c3576129c2610b1a565b5b600082015167ffffffffffffffff8111156129e1576129e0610b1f565b5b6129ed848285016128b9565b91505092915050565b600082825260208201905092915050565b6000612a1282612191565b612a1c81856129f6565b935083602082028501612a2e856121ad565b8060005b85811015612a6a5784840389528151612a4b8582612246565b9450612a568361225a565b925060208a01995050600181019050612a32565b50829750879550505050505092915050565b600082825260208201905092915050565b6000612a98826122dc565b612aa28185612a7c565b935083602082028501612ab4856122f8565b8060005b85811015612af05784840389528151612ad185826123a4565b9450612adc836123b8565b925060208a01995050600181019050612ab8565b50829750879550505050505092915050565b60006060830160008301518482036000860152612b1f8282610e70565b9150506020830151612b346020860182610a13565b5060408301518482036040860152612b4c8282610e70565b9150508091505092915050565b60006060820190508181036000830152612b738186612a07565b90508181036020830152612b878185612a8d565b90508181036040830152612b9b8184612b02565b9050949350505050565b600067ffffffffffffffff821115612bc057612bbf610b3f565b5b602082029050602081019050919050565b6000612be4612bdf84612ba5565b610b9f565b90508083825260208201905060208402830185811115612c0757612c0661175b565b5b835b81811015612c4e57805167ffffffffffffffff811115612c2c57612c2b610b24565b5b808601612c398982611343565b85526020850194505050602081019050612c09565b5050509392505050565b600082601f830112612c6d57612c6c610b24565b5b8151612c7d848260208601612bd1565b91505092915050565b600067ffffffffffffffff821115612ca157612ca0610b3f565b5b602082029050602081019050919050565b6000612cc5612cc084612c86565b610b9f565b90508083825260208201905060208402830185811115612ce857612ce761175b565b5b835b81811015612d2f57805167ffffffffffffffff811115612d0d57612d0c610b24565b5b808601612d1a8982611499565b85526020850194505050602081019050612cea565b5050509392505050565b600082601f830112612d4e57612d4d610b24565b5b8151612d5e848260208601612cb2565b91505092915050565b600060808284031215612d7d57612d7c61124c565b5b612d876080610b9f565b90506000612d9784828501611484565b600083015250602082015167ffffffffffffffff811115612dbb57612dba611251565b5b612dc784828501612c58565b602083015250604082015167ffffffffffffffff811115612deb57612dea611251565b5b612df784828501612d39565b604083015250606082015167ffffffffffffffff811115612e1b57612e1a611251565b5b612e278482850161161e565b60608301525092915050565b600060208284031215612e4957612e48610b1a565b5b600082015167ffffffffffffffff811115612e6757612e66610b1f565b5b612e7384828501612d67565b9150509291505056fea26469706673582212207eb1f7da4d568ea76b4b0a73b8d8471bc65d2c101b015f78fd47c6bd1cf13c3164736f6c63430008130033",
  "linkReferences": {},
  "deployedLinkReferences": {}
}