{
  "_format": "hh-sol-artifact-1",
  "contractName": "Whitelist",
  "sourceName": "contracts/Whitelist.sol",
  "abi": [
    {
      "inputs": [],
      "stateMutability": "nonpayable",
      "type": "constructor"
    },
    {
      "inputs": [
        {
          "internalType": "uint256",
          "name": "propositionId",
          "type": "uint256"
        },
        {
          "internalType": "bytes32[]",
          "name": "sismoIds",
          "type": "bytes32[]"
        }
      ],
      "name": "addToWhitelist",
      "outputs": [],
      "stateMutability": "nonpayable",
      "type": "function"
    },
    {
      "inputs": [
        {
          "internalType": "uint256",
          "name": "propositionId",
          "type": "uint256"
        },
        {
          "internalType": "bytes32",
          "name": "sismoId",
          "type": "bytes32"
        }
      ],
      "name": "makeVote",
      "outputs": [],
      "stateMutability": "nonpayable",
      "type": "function"
    },
    {
      "inputs": [],
      "name": "owner",
      "outputs": [
        {
          "internalType": "address",
          "name": "",
          "type": "address"
        }
      ],
      "stateMutability": "view",
      "type": "function"
    },
    {
      "inputs": [],
      "name": "verifier",
      "outputs": [
        {
          "internalType": "address",
          "name": "",
          "type": "address"
        }
      ],
      "stateMutability": "view",
      "type": "function"
    }
  ],
  "bytecode": "0x608060405234801561001057600080fd5b50336000806101000a81548173ffffffffffffffffffffffffffffffffffffffff021916908373ffffffffffffffffffffffffffffffffffffffff1602179055506107cb806100606000396000f3fe608060405234801561001057600080fd5b506004361061004c5760003560e01c80632b7ac3f314610051578063553b30671461006f5780638da5cb5b1461008b578063ae851751146100a9575b600080fd5b6100596100c5565b604051610066919061032a565b60405180910390f35b610089600480360381019061008491906103c5565b6100eb565b005b6100936101bc565b6040516100a0919061032a565b60405180910390f35b6100c360048036038101906100be919061055e565b6101e0565b005b600160009054906101000a900473ffffffffffffffffffffffffffffffffffffffff1681565b600160009054906101000a900473ffffffffffffffffffffffffffffffffffffffff1673ffffffffffffffffffffffffffffffffffffffff163373ffffffffffffffffffffffffffffffffffffffff161461017b576040517f08c379a00000000000000000000000000000000000000000000000000000000081526004016101729061063d565b60405180910390fd5b600060026000848152602001908152602001600020600083815260200190815260200160002060006101000a81548160ff0219169083151502179055505050565b60008054906101000a900473ffffffffffffffffffffffffffffffffffffffff1681565b60008054906101000a900473ffffffffffffffffffffffffffffffffffffffff1673ffffffffffffffffffffffffffffffffffffffff163373ffffffffffffffffffffffffffffffffffffffff161461026e576040517f08c379a0000000000000000000000000000000000000000000000000000000008152600401610265906106cf565b60405180910390fd5b60005b81518110156102e45760016002600085815260200190815260200160002060008484815181106102a4576102a36106ef565b5b6020026020010151815260200190815260200160002060006101000a81548160ff02191690831515021790555080806102dc9061074d565b915050610271565b505050565b600073ffffffffffffffffffffffffffffffffffffffff82169050919050565b6000610314826102e9565b9050919050565b61032481610309565b82525050565b600060208201905061033f600083018461031b565b92915050565b6000604051905090565b600080fd5b600080fd5b6000819050919050565b61036c81610359565b811461037757600080fd5b50565b60008135905061038981610363565b92915050565b6000819050919050565b6103a28161038f565b81146103ad57600080fd5b50565b6000813590506103bf81610399565b92915050565b600080604083850312156103dc576103db61034f565b5b60006103ea8582860161037a565b92505060206103fb858286016103b0565b9150509250929050565b600080fd5b6000601f19601f8301169050919050565b7f4e487b7100000000000000000000000000000000000000000000000000000000600052604160045260246000fd5b6104538261040a565b810181811067ffffffffffffffff821117156104725761047161041b565b5b80604052505050565b6000610485610345565b9050610491828261044a565b919050565b600067ffffffffffffffff8211156104b1576104b061041b565b5b602082029050602081019050919050565b600080fd5b60006104da6104d584610496565b61047b565b905080838252602082019050602084028301858111156104fd576104fc6104c2565b5b835b81811015610526578061051288826103b0565b8452602084019350506020810190506104ff565b5050509392505050565b600082601f83011261054557610544610405565b5b81356105558482602086016104c7565b91505092915050565b600080604083850312156105755761057461034f565b5b60006105838582860161037a565b925050602083013567ffffffffffffffff8111156105a4576105a3610354565b5b6105b085828601610530565b9150509250929050565b600082825260208201905092915050565b7f4f6e6c79207363566f74652063616e2063616c6c20746869732066756e63746960008201527f6f6e2e0000000000000000000000000000000000000000000000000000000000602082015250565b60006106276023836105ba565b9150610632826105cb565b604082019050919050565b600060208201905081810360008301526106568161061a565b9050919050565b7f4f6e6c79206f776e65722063616e2063616c6c20746869732066756e6374696f60008201527f6e2e000000000000000000000000000000000000000000000000000000000000602082015250565b60006106b96022836105ba565b91506106c48261065d565b604082019050919050565b600060208201905081810360008301526106e8816106ac565b9050919050565b7f4e487b7100000000000000000000000000000000000000000000000000000000600052603260045260246000fd5b7f4e487b7100000000000000000000000000000000000000000000000000000000600052601160045260246000fd5b600061075882610359565b91507fffffffffffffffffffffffffffffffffffffffffffffffffffffffffffffffff820361078a5761078961071e565b5b60018201905091905056fea2646970667358221220634208c94bf46bfe1f521cb820447ef05aa2549774c2b9c0e015458987b21db264736f6c63430008130033",
  "linkReferences": {},
  "deployedLinkReferences": {}
}